loading state from p1_state.json...

--- listunspent at B (from prev txn A->B) ---
utxos at addr B:
  txid  : 0db07ce929614ced500380b512c41919929e984544c016aa1b0ca9268e03c334
  vout  : 0
  amount: 0.99990000

confirmed: utxo at B came from txn A->B
txid: 0db07ce929614ced500380b512c41919929e984544c016aa1b0ca9268e03c334

--- making txn B to C ---

[challenge script for addr C]
  type: pubkeyhash
  asm : OP_DUP OP_HASH160 d7b40d4c3d415d8a3cd68318d061f58d7bb89f74 OP_EQUALVERIFY OP_CHECKSIG
  hex : 76a914d7b40d4c3d415d8a3cd68318d061f58d7bb89f7488ac

[decoded signed B->C txn]
{
  "txid": "2e521a916493af9a8ebf15dc544a610d86084a32edef1c910de3bb358ac8b88f",
  "hash": "2e521a916493af9a8ebf15dc544a610d86084a32edef1c910de3bb358ac8b88f",
  "version": 2,
  "size": 191,
  "vsize": 191,
  "weight": 764,
  "locktime": 0,
  "vin": [
    {
      "txid": "0db07ce929614ced500380b512c41919929e984544c016aa1b0ca9268e03c334",
      "vout": 0,
      "scriptSig": {
        "asm": "3044022030ed51ba901fca07780806e1b30250243b874243be25b795533e01573f7e5e2f02203e77711b9172bdf98defea82a529137a6e5b169cfd2c76ff7df686881cd01449[ALL] 023eeae7b66405b388ae5da8333eb1b7d8864e613d35368f6a090f638cb30837c8",
        "hex": "473044022030ed51ba901fca07780806e1b30250243b874243be25b795533e01573f7e5e2f02203e77711b9172bdf98defea82a529137a6e5b169cfd2c76ff7df686881cd014490121023eeae7b66405b388ae5da8333eb1b7d8864e613d35368f6a090f638cb30837c8"
      },
      "sequence": 4294967293
    }
  ],
  "vout": [
    {
      "value": 0.9998,
      "n": 0,
      "scriptPubKey": {
        "asm": "OP_DUP OP_HASH160 d7b40d4c3d415d8a3cd68318d061f58d7bb89f74 OP_EQUALVERIFY OP_CHECKSIG",
        "desc": "addr(n1BVGXTgR5RPHdX8ZhX2jMmm9bPqh7jTfU)#82dm3nh2",
        "hex": "76a914d7b40d4c3d415d8a3cd68318d061f58d7bb89f7488ac",
        "address": "n1BVGXTgR5RPHdX8ZhX2jMmm9bPqh7jTfU",
        "type": "pubkeyhash"
      }
    }
  ]
}

[response script / scriptSig that unlocks B utxo]
  asm: 3044022030ed51ba901fca07780806e1b30250243b874243be25b795533e01573f7e5e2f02203e77711b9172bdf98defea82a529137a6e5b169cfd2c76ff7df686881cd01449[ALL] 023eeae7b66405b388ae5da8333eb1b7d8864e613d35368f6a090f638cb30837c8
  hex: 473044022030ed51ba901fca07780806e1b30250243b874243be25b795533e01573f7e5e2f02203e77711b9172bdf98defea82a529137a6e5b169cfd2c76ff7df686881cd014490121023eeae7b66405b388ae5da8333eb1b7d8864e613d35368f6a090f638cb30837c8

--- checking challenge vs response ---
challenge (spk from A->B):
  OP_DUP OP_HASH160 add64516bcc4bfa777940e4d7ad8f4ef340963ad OP_EQUALVERIFY OP_CHECKSIG

response (ssig in B->C):
  3044022030ed51ba901fca07780806e1b30250243b874243be25b795533e01573f7e5e2f02203e77711b9172bdf98defea82a529137a6e5b169cfd2c76ff7df686881cd01449[ALL] 023eeae7b66405b388ae5da8333eb1b7d8864e613d35368f6a090f638cb30837c8

scriptSig gives <sig> and <pubkey>
scriptPubKey does hash160(pubkey) and checks it matches
then checksig verifies the signature -> if ok txn is valid

broadcasted B->C: 2e521a916493af9a8ebf15dc544a610d86084a32edef1c910de3bb358ac8b88f
mined 6 blocks

--- txn sizes ---

A->B:
  size  : 191 bytes
  vsize : 191 vbytes
  weight: 764 WU

B->C:
  size  : 191 bytes
  vsize : 191 vbytes
  weight: 764 WU

--- btcdeb command to validate scripts ---
btcdeb --tx=020000000134c3038e26a90c1baa16c04445989e921919c412b5800350ed4c6129e97cb00d000000006a473044022030ed51ba901fca07780806e1b30250243b874243be25b795533e01573f7e5e2f02203e77711b9172bdf98defea82a529137a6e5b169cfd2c76ff7df686881cd014490121023eeae7b66405b388ae5da8333eb1b7d8864e613d35368f6a090f638cb30837c8fdffffff01e092f505000000001976a914d7b40d4c3d415d8a3cd68318d061f58d7bb89f7488ac00000000 --txin=020000000143d20a5ab7b768103a6392a056b938ae3821887f04fa83dca14fe8f13a284e84010000006a4730440220283077c03f073c3ae8f3e3d96415abd5adfca85b01f4603cc27a8e3a2f4f86c30220078d5e93b84258f6c79328916a2b307f3c65a1eba294f1ad614c4704effe1c820121024266b71c7ac19e2fbdaec662a12eeeac61422e5069d91906162175d9179470e6fdffffff01f0b9f505000000001976a914add64516bcc4bfa777940e4d7ad8f4ef340963ad88ac00000000

saved to part1_summary.json

=== part 1 done ===
