
--- generating segwit addresses A B C ---
addr A': 2N3kxyUhnXHAwYA4ZdHvwws1dFk4w1AMSWT
addr B': 2NA5KMnxx5fbbdZ5Zdcm98c8DPbUNyn9p43
addr C': 2NBPAuWDYffqRB2ut14GK98fTaPNZx3R9Jd
saved to segwit_addrs.json

--- funding addr A' ---
funding txid: 5360f8a527ab8aef7a0e3578211a8b48fef882576e2097cca52badb837397662
mined 6 blocks

utxos at A':
  txid: 5360f8a527ab8aef7a0e3578211a8b48fef882576e2097cca52badb837397662  amt: 1.00000000

--- txn A' to B' ---

[challenge script for addr B']
  type: scripthash
  asm : OP_HASH160 b89a764a054a1ceffd68bac5e3da953aacbb320e OP_EQUAL
  hex : a914b89a764a054a1ceffd68bac5e3da953aacbb320e87
signing done

[decoded signed A'->B']
{
  "txid": "af7b950900c341613f623719b2d78aa0b28a9d09ee8b0b3cf0e89ba61b252d54",
  "hash": "699bb89b4068da19ed795f3575be799ecfba14019400713faecacbb601916bce",
  "version": 2,
  "size": 215,
  "vsize": 134,
  "weight": 533,
  "locktime": 0,
  "vin": [
    {
      "txid": "5360f8a527ab8aef7a0e3578211a8b48fef882576e2097cca52badb837397662",
      "vout": 0,
      "scriptSig": {
        "asm": "0014c40f1affe289b5e546d61e481afa427059021b31",
        "hex": "160014c40f1affe289b5e546d61e481afa427059021b31"
      },
      "txinwitness": [
        "304402204d01cfff922ed358d979f3eff2ab4907734ade1e32e56472b36d36061671c20b022076a1a1c8da2969bd5ce849aef94ed00c2a0795e18a6392da627e496a1ff793f001",
        "039779e0c837efebfb59a1345dcea907d42a203c0695df249ba0f5d6a544cc8b57"
      ],
      "sequence": 4294967293
    }
  ],
  "vout": [
    {
      "value": 0.9999,
      "n": 0,
      "scriptPubKey": {
        "asm": "OP_HASH160 b89a764a054a1ceffd68bac5e3da953aacbb320e OP_EQUAL",
        "desc": "addr(2NA5KMnxx5fbbdZ5Zdcm98c8DPbUNyn9p43)#fxl0y6d8",
        "hex": "a914b89a764a054a1ceffd68bac5e3da953aacbb320e87",
        "address": "2NA5KMnxx5fbbdZ5Zdcm98c8DPbUNyn9p43",
        "type": "scripthash"
      }
    }
  ]
}

[response scriptsig]
  asm: 0014c40f1affe289b5e546d61e481afa427059021b31
  hex: 160014c40f1affe289b5e546d61e481afa427059021b31

[witness data - segregated]
witness stack size: 2
  [0] signature: 304402204d01cfff922ed358d979f3eff2ab4907734ade1e32e56472b36d36061671c20b022076a1a1c8da2969bd5ce849aef94ed00c2a0795e18a6392da627e496a1ff793f001
  [1] pubkey: 039779e0c837efebfb59a1345dcea907d42a203c0695df249ba0f5d6a544cc8b57

--- SegWit structure ---
scriptSig contains redeemScript
signature and pubkey moved to witness

broadcasted! txid A'->B': af7b950900c341613f623719b2d78aa0b28a9d09ee8b0b3cf0e89ba61b252d54
mined 6 blocks

--- txn B' to C' ---
utxos at B':
  txid: af7b950900c341613f623719b2d78aa0b28a9d09ee8b0b3cf0e89ba61b252d54  amt: 0.99990000
chain ok: utxo at B' came from A'->B' txn

[challenge script for addr C']
  type: scripthash
  asm : OP_HASH160 c6f304cc3c8e9faad30eac526990706253b7bde3 OP_EQUAL
  hex : a914c6f304cc3c8e9faad30eac526990706253b7bde387

[decoded signed B'->C']
{
  "txid": "23717d9867ae676544c96984f81b5728a645a8628c4093ed66366302d3831a77",
  "hash": "8d401a9272e966368cb24a6e100042f9b96255221e74f78c4cc1f599c4d21cbe",
  "version": 2,
  "size": 215,
  "vsize": 134,
  "weight": 533,
  "locktime": 0,
  "vin": [
    {
      "txid": "af7b950900c341613f623719b2d78aa0b28a9d09ee8b0b3cf0e89ba61b252d54",
      "vout": 0,
      "scriptSig": {
        "asm": "001499e40a39dea73ea25ab3301f4561f353927b9170",
        "hex": "16001499e40a39dea73ea25ab3301f4561f353927b9170"
      },
      "txinwitness": [
        "3044022050fadc4db8440a3be579b631214211c10f5bb933790c11f56037682b6a99987802202824521112ec0f1fea4a57b15b4d5242fdb08f1769064dc943efcd1ad8edb80401",
        "03e49f7ba180358fe94cc257b56ace978da96c33164c54803a66cbce0bfc96a757"
      ],
      "sequence": 4294967293
    }
  ],
  "vout": [
    {
      "value": 0.9998,
      "n": 0,
      "scriptPubKey": {
        "asm": "OP_HASH160 c6f304cc3c8e9faad30eac526990706253b7bde3 OP_EQUAL",
        "desc": "addr(2NBPAuWDYffqRB2ut14GK98fTaPNZx3R9Jd)#x0mt80ax",
        "hex": "a914c6f304cc3c8e9faad30eac526990706253b7bde387",
        "address": "2NBPAuWDYffqRB2ut14GK98fTaPNZx3R9Jd",
        "type": "scripthash"
      }
    }
  ]
}

[response scriptsig]
  asm: 001499e40a39dea73ea25ab3301f4561f353927b9170
  hex: 16001499e40a39dea73ea25ab3301f4561f353927b9170

[witness data]
witness stack size: 2
  [0] signature: 3044022050fadc4db8440a3be579b631214211c10f5bb933790c11f56037682b6a99987802202824521112ec0f1fea4a57b15b4d5242fdb08f1769064dc943efcd1ad8edb80401
  [1] pubkey: 03e49f7ba180358fe94cc257b56ace978da96c33164c54803a66cbce0bfc96a757

--- SegWit structure ---
scriptSig contains redeemScript
signature and pubkey moved to witness

[challenge vs response]
challenge spk B': OP_HASH160 b89a764a054a1ceffd68bac5e3da953aacbb320e OP_EQUAL
response ssig   : 001499e40a39dea73ea25ab3301f4561f353927b9170
witness sig     : 3044022050fadc4db8440a3be579b631214211c1 ...
witness pubkey  : 03e49f7ba180358fe94cc257b56ace978da96c33164c54803a66cbce0bfc96a757

broadcasted! txid B'->C': 23717d9867ae676544c96984f81b5728a645a8628c4093ed66366302d3831a77
mined 6 blocks

--- txn sizes ---

A'->B':
  size  : 215 bytes
  vsize : 134 vbytes
  weight: 533 WU

B'->C':
  size  : 215 bytes
  vsize : 134 vbytes
  weight: 533 WU

--- btcdeb command ---
btcdeb --tx=02000000000101542d251ba69be8f03c0b8bee099d8ab2a08ad7b21937623f6141c30009957baf000000001716001499e40a39dea73ea25ab3301f4561f353927b9170fdffffff01e092f5050000000017a914c6f304cc3c8e9faad30eac526990706253b7bde38702473044022050fadc4db8440a3be579b631214211c10f5bb933790c11f56037682b6a99987802202824521112ec0f1fea4a57b15b4d5242fdb08f1769064dc943efcd1ad8edb804012103e49f7ba180358fe94cc257b56ace978da96c33164c54803a66cbce0bfc96a75700000000 --txin=0200000000010162763937b8ad2ba5cc97206e5782f8fe488b1a2178350e7aef8aab27a5f860530000000017160014c40f1affe289b5e546d61e481afa427059021b31fdffffff01f0b9f5050000000017a914b89a764a054a1ceffd68bac5e3da953aacbb320e870247304402204d01cfff922ed358d979f3eff2ab4907734ade1e32e56472b36d36061671c20b022076a1a1c8da2969bd5ce849aef94ed00c2a0795e18a6392da627e496a1ff793f00121039779e0c837efebfb59a1345dcea907d42a203c0695df249ba0f5d6a544cc8b5700000000

saved to part2_summary.json

=== part 2 done ===
