
--- generating segwit adresses A B C ---
addr A': 2MwDLiQDFFdMTGNcoZNFJdzbWyZ5cGuSHwB
addr B': 2Mws7da6CgS6HDuzBHtvixvz2awkQ5haTRG
addr C': 2N8gyrug6h3uMr51cFdR91VkeJ5tBWv6vC8
saved to segwit_addrs.json

--- funding addr A' ---
funding txid: a5108f50c7e5d7927b80b6d62e2689e7c9d73791a7c910295d77ef44c52ec6d1
mined 6 bloks

utxos at A':
  txid: a5108f50c7e5d7927b80b6d62e2689e7c9d73791a7c910295d77ef44c52ec6d1  amt: 1.00000000

--- txn A' to B' ---

[challenge script for addr B']
  type: scripthash
  asm : OP_HASH160 32aa2bcdb8f5ede4a60b2f300f919aaaf5745796 OP_EQUAL
  hex : a91432aa2bcdb8f5ede4a60b2f300f919aaaf574579687
signing done

[decoded signed A'->B']
{
  "txid": "b92b2ef1b3f4daac1b6bc6da28cf5b46c6d1333f7568308b8dade4e2521bc7c0",
  "hash": "70686a2c9018f281062e300d6670936b598631332179f69880d0d4232e78a1b0",
  "version": 2,
  "size": 215,
  "vsize": 134,
  "weight": 533,
  "locktime": 0,
  "vin": [
    {
      "txid": "a5108f50c7e5d7927b80b6d62e2689e7c9d73791a7c910295d77ef44c52ec6d1",
      "vout": 1,
      "scriptSig": {
        "asm": "0014c1aa6e6da6fc63969307e4772b27507ef50a24f9",
        "hex": "160014c1aa6e6da6fc63969307e4772b27507ef50a24f9"
      },
      "txinwitness": [
        "304402206969870bc46ee27b0dcbe402646ef4597e2b5ab3f365212071a7fa29aeaf407e02205aa16b4c55ad09cb44f17614ea417397868c69718f17799dcfaa84b93b6a494401",
        "0330313eff56cb0bc8c1a5e7156e2491c671d4ff0a87a01628248583003a179004"
      ],
      "sequence": 4294967293
    }
  ],
  "vout": [
    {
      "value": 0.9999,
      "n": 0,
      "scriptPubKey": {
        "asm": "OP_HASH160 32aa2bcdb8f5ede4a60b2f300f919aaaf5745796 OP_EQUAL",
        "desc": "addr(2Mws7da6CgS6HDuzBHtvixvz2awkQ5haTRG)#0emhlpjf",
        "hex": "a91432aa2bcdb8f5ede4a60b2f300f919aaaf574579687",
        "address": "2Mws7da6CgS6HDuzBHtvixvz2awkQ5haTRG",
        "type": "scripthash"
      }
    }
  ]
}

[response scriptsig]
  asm: 0014c1aa6e6da6fc63969307e4772b27507ef50a24f9
  hex: 160014c1aa6e6da6fc63969307e4772b27507ef50a24f9

[witness data - segregated]
  [0] signature: 304402206969870bc46ee27b0dcbe402646ef4597e2b5ab3f365212071a7fa29aeaf407e02205aa16b4c55ad09cb44f17614ea417397868c69718f17799dcfaa84b93b6a494401
  [1] pubkey: 0330313eff56cb0bc8c1a5e7156e2491c671d4ff0a87a01628248583003a179004

broadcasted! txid A'->B': b92b2ef1b3f4daac1b6bc6da28cf5b46c6d1333f7568308b8dade4e2521bc7c0
mined 6 bloks

--- txn B' to C' ---
utxos at B':
  txid: b92b2ef1b3f4daac1b6bc6da28cf5b46c6d1333f7568308b8dade4e2521bc7c0  amt: 0.99990000
chain ok: utxo at B' came from A'->B' txn

[challenge script for addr C']
  type: scripthash
  asm : OP_HASH160 a968e8b4c7a4d02a4e2d5437737c617bf0d75bd0 OP_EQUAL
  hex : a914a968e8b4c7a4d02a4e2d5437737c617bf0d75bd087

[decoded signed B'->C']
{
  "txid": "b536bb250cb504ff206fd517a41b9b8595868dee4083942bd699e87a58a61564",
  "hash": "c0aaa70bba256733fb922cb35e1931e89e5aeff1e60c1581ca3b11d2daab64cd",
  "version": 2,
  "size": 215,
  "vsize": 134,
  "weight": 533,
  "locktime": 0,
  "vin": [
    {
      "txid": "b92b2ef1b3f4daac1b6bc6da28cf5b46c6d1333f7568308b8dade4e2521bc7c0",
      "vout": 0,
      "scriptSig": {
        "asm": "0014ffb9dcac2cca1e4ea378498d4f1beda758b771e3",
        "hex": "160014ffb9dcac2cca1e4ea378498d4f1beda758b771e3"
      },
      "txinwitness": [
        "3044022075f0860138569067736ab12bec4ef0fdd18fedb3dfddbb0dfb54e6ee58bd59620220779c1ccacf103adc427f52626212545b68a3f214bedba0663a6dfd270eb81ca001",
        "0245085c3e415932ea3eff76b3890388d13a03ff461882db7b6a95067a6289a77c"
      ],
      "sequence": 4294967293
    }
  ],
  "vout": [
    {
      "value": 0.9998,
      "n": 0,
      "scriptPubKey": {
        "asm": "OP_HASH160 a968e8b4c7a4d02a4e2d5437737c617bf0d75bd0 OP_EQUAL",
        "desc": "addr(2N8gyrug6h3uMr51cFdR91VkeJ5tBWv6vC8)#5mf6xequ",
        "hex": "a914a968e8b4c7a4d02a4e2d5437737c617bf0d75bd087",
        "address": "2N8gyrug6h3uMr51cFdR91VkeJ5tBWv6vC8",
        "type": "scripthash"
      }
    }
  ]
}

[response scriptsig]
  asm: 0014ffb9dcac2cca1e4ea378498d4f1beda758b771e3
  hex: 160014ffb9dcac2cca1e4ea378498d4f1beda758b771e3

[witness data]
  [0] signature: 3044022075f0860138569067736ab12bec4ef0fdd18fedb3dfddbb0dfb54e6ee58bd59620220779c1ccacf103adc427f52626212545b68a3f214bedba0663a6dfd270eb81ca001
  [1] pubkey: 0245085c3e415932ea3eff76b3890388d13a03ff461882db7b6a95067a6289a77c

[challenge vs response]
challenge spk B': OP_HASH160 32aa2bcdb8f5ede4a60b2f300f919aaaf5745796 OP_EQUAL
response ssig   : 0014ffb9dcac2cca1e4ea378498d4f1beda758b771e3
witness sig     : 3044022075f0860138569067736ab12bec4ef0fd ...
witness pubkey  : 0245085c3e415932ea3eff76b3890388d13a03ff461882db7b6a95067a6289a77c

broadcasted! txid B'->C': b536bb250cb504ff206fd517a41b9b8595868dee4083942bd699e87a58a61564
mined 6 bloks

--- txn sizes ---

A'->B':
  size  : 215 bytes
  vsize : 134 vbytes
  weight: 533 WU

B'->C':
  size  : 215 bytes
  vsize : 134 vbytes
  weight: 533 WU

--- btcdeb command ---
btcdeb --tx=02000000000101c0c71b52e2e4ad8d8b3068753f33d1c6465bcf28dac66b1bacdaf4b3f12e2bb90000000017160014ffb9dcac2cca1e4ea378498d4f1beda758b771e3fdffffff01e092f5050000000017a914a968e8b4c7a4d02a4e2d5437737c617bf0d75bd08702473044022075f0860138569067736ab12bec4ef0fdd18fedb3dfddbb0dfb54e6ee58bd59620220779c1ccacf103adc427f52626212545b68a3f214bedba0663a6dfd270eb81ca001210245085c3e415932ea3eff76b3890388d13a03ff461882db7b6a95067a6289a77c00000000 --txin=02000000000101d1c62ec544ef775d2910c9a79137d7c9e789262ed6b6807b92d7e5c7508f10a50100000017160014c1aa6e6da6fc63969307e4772b27507ef50a24f9fdffffff01f0b9f5050000000017a91432aa2bcdb8f5ede4a60b2f300f919aaaf5745796870247304402206969870bc46ee27b0dcbe402646ef4597e2b5ab3f365212071a7fa29aeaf407e02205aa16b4c55ad09cb44f17614ea417397868c69718f17799dcfaa84b93b6a494401210330313eff56cb0bc8c1a5e7156e2491c671d4ff0a87a01628248583003a17900400000000

saved to part2_summary.json

=== part 2 done ===
