
============================================================
  STEP 1: Generate Legacy (P2PKH) Addresses A, B, C
============================================================
Address A: n2WRkpMzvpQ5UAM34o1JtkDTwCMW7GMscf
Address B: myctaaJXJzqpegkfKTY6vxLm5JRhLqXBLc
Address C: msPZf6mnd1Rq41QJ5doaL9y8AFznznPzSg
✓ Saved to legacy_addresses.json

============================================================
  STEP 2: Fund Address A
============================================================
Funding txid: f4d8a9f982a27dca85ce132ed005c95aebd36598a1091fc3a62bf4799adf7776
Sent 1.0 BTC → Address A
  ✓ Mined 6 blocks

UTXOs at A:
  txid: f4d8a9f982a27dca85ce132ed005c95aebd36598a1091fc3a62bf4799adf7776
  vout: 1
  amount: 1.00000000 BTC

============================================================
  STEP 3: Transaction A → B
============================================================
Input:  f4d8a9f982a27dca85ce132ed005c95aebd36598a1091fc3a62bf4799adf7776:1
Amount: 1.00000000 BTC  |  Fee: 0.0001  |  Sending: 0.99990000 BTC

[CHALLENGE SCRIPT — scriptPubKey for Address B]
  type: pubkeyhash
  asm:  OP_DUP OP_HASH160 c691a89b835909af7affb1c7193e1e80c8d0875c OP_EQUALVERIFY OP_CHECKSIG
  hex:  76a914c691a89b835909af7affb1c7193e1e80c8d0875c88ac

✓ Signed successfully

[Full decoded SIGNED A→B tx]
{
  "txid": "884230236c9619a91fe92db5b4ec24ebe78a999d1b235a51a8ca3faba4fc6cdb",
  "hash": "884230236c9619a91fe92db5b4ec24ebe78a999d1b235a51a8ca3faba4fc6cdb",
  "version": 2,
  "size": 191,
  "vsize": 191,
  "weight": 764,
  "locktime": 0,
  "vin": [
    {
      "txid": "f4d8a9f982a27dca85ce132ed005c95aebd36598a1091fc3a62bf4799adf7776",
      "vout": 1,
      "scriptSig": {
        "asm": "304402205de09df553a5e80177f7e8c28407d63684855723286c19bdb6f5d4d9d09038280220640ea64a187b5a530b5e85ef427912d327908b8b5beb299276136fa8f0cb02e8[ALL] 02e8abff6cd33f6986e62c40b5917ef63928494ae37c0ade28ed9c942cb7197da6",
        "hex": "47304402205de09df553a5e80177f7e8c28407d63684855723286c19bdb6f5d4d9d09038280220640ea64a187b5a530b5e85ef427912d327908b8b5beb299276136fa8f0cb02e8012102e8abff6cd33f6986e62c40b5917ef63928494ae37c0ade28ed9c942cb7197da6"
      },
      "sequence": 4294967293
    }
  ],
  "vout": [
    {
      "value": 0.9999,
      "n": 0,
      "scriptPubKey": {
        "asm": "OP_DUP OP_HASH160 c691a89b835909af7affb1c7193e1e80c8d0875c OP_EQUALVERIFY OP_CHECKSIG",
        "desc": "addr(myctaaJXJzqpegkfKTY6vxLm5JRhLqXBLc)#5g58j556",
        "hex": "76a914c691a89b835909af7affb1c7193e1e80c8d0875c88ac",
        "address": "myctaaJXJzqpegkfKTY6vxLm5JRhLqXBLc",
        "type": "pubkeyhash"
      }
    }
  ]
}

✓ Broadcast! txid A→B: 884230236c9619a91fe92db5b4ec24ebe78a999d1b235a51a8ca3faba4fc6cdb
  ✓ Mined 6 blocks

============================================================
  STEP 4: Transaction B → C
============================================================
UTXOs at B:
  txid: 884230236c9619a91fe92db5b4ec24ebe78a999d1b235a51a8ca3faba4fc6cdb  vout: 0  amount: 0.99990000

✓ Confirmed: UTXO at B came from txid A→B

[CHALLENGE SCRIPT — scriptPubKey for Address C]
  type: pubkeyhash
  asm:  OP_DUP OP_HASH160 823bb37e51ca71b7bca3f3ae7cba4efa2f6852d1 OP_EQUALVERIFY OP_CHECKSIG
  hex:  76a914823bb37e51ca71b7bca3f3ae7cba4efa2f6852d188ac

[Full decoded SIGNED B→C tx]
{
  "txid": "04ab98eda4d3944f457642cb2519db56f0865f1d33908dde0a3e718ef20c2d89",
  "hash": "04ab98eda4d3944f457642cb2519db56f0865f1d33908dde0a3e718ef20c2d89",
  "version": 2,
  "size": 191,
  "vsize": 191,
  "weight": 764,
  "locktime": 0,
  "vin": [
    {
      "txid": "884230236c9619a91fe92db5b4ec24ebe78a999d1b235a51a8ca3faba4fc6cdb",
      "vout": 0,
      "scriptSig": {
        "asm": "3044022010c1e9ad6b38e46fca48bd2ae87e05b543a8af909d579a304fa5de0e6b30e80002203ea6e0dbcf4beae653ce8136049956a113526080332053f840cf1a3fffa60688[ALL] 03eb7d9e163962db69b071192e2a4c09f5f8182e59521bd5a2b573447ac609b888",
        "hex": "473044022010c1e9ad6b38e46fca48bd2ae87e05b543a8af909d579a304fa5de0e6b30e80002203ea6e0dbcf4beae653ce8136049956a113526080332053f840cf1a3fffa60688012103eb7d9e163962db69b071192e2a4c09f5f8182e59521bd5a2b573447ac609b888"
      },
      "sequence": 4294967293
    }
  ],
  "vout": [
    {
      "value": 0.9998,
      "n": 0,
      "scriptPubKey": {
        "asm": "OP_DUP OP_HASH160 823bb37e51ca71b7bca3f3ae7cba4efa2f6852d1 OP_EQUALVERIFY OP_CHECKSIG",
        "desc": "addr(msPZf6mnd1Rq41QJ5doaL9y8AFznznPzSg)#3mpflury",
        "hex": "76a914823bb37e51ca71b7bca3f3ae7cba4efa2f6852d188ac",
        "address": "msPZf6mnd1Rq41QJ5doaL9y8AFznznPzSg",
        "type": "pubkeyhash"
      }
    }
  ]
}

[RESPONSE SCRIPT — scriptSig spending B's UTXO]
  asm: 3044022010c1e9ad6b38e46fca48bd2ae87e05b543a8af909d579a304fa5de0e6b30e80002203ea6e0dbcf4beae653ce8136049956a113526080332053f840cf1a3fffa60688[ALL] 03eb7d9e163962db69b071192e2a4c09f5f8182e59521bd5a2b573447ac609b888
  hex: 473044022010c1e9ad6b38e46fca48bd2ae87e05b543a8af909d579a304fa5de0e6b30e80002203ea6e0dbcf4beae653ce8136049956a113526080332053f840cf1a3fffa60688012103eb7d9e163962db69b071192e2a4c09f5f8182e59521bd5a2b573447ac609b888

[CHALLENGE vs RESPONSE CHECK]
  Challenge (scriptPubKey B): OP_DUP OP_HASH160 c691a89b835909af7affb1c7193e1e80c8d0875c OP_EQUALVERIFY OP_CHECKSIG
  Response  (scriptSig B→C):  3044022010c1e9ad6b38e46fca48bd2ae87e05b543a8af909d579a304fa5de0e6b30e80002203ea6e0dbcf4beae653ce8136049956a113526080332053f840cf1a3fffa60688[ALL] 03eb7d9e163962db69b071192e2a4c09f5f8182e59521bd5a2b573447ac609b888
  → scriptSig provides <sig> and <pubKey>
  → scriptPubKey hashes pubKey and checks it matches stored hash

✓ Broadcast! txid B→C: 04ab98eda4d3944f457642cb2519db56f0865f1d33908dde0a3e718ef20c2d89
  ✓ Mined 6 blocks

============================================================
  STEP 5: Transaction Sizes
============================================================

Tx A→B:
  size:   191 bytes
  vsize:  191 vbytes
  weight: 764 WU

Tx B→C:
  size:   191 bytes
  vsize:  191 vbytes
  weight: 764 WU

============================================================
  STEP 6: btcdeb Validation Commands (run these separately)
============================================================

To validate B→C script execution, run:

btcdeb --tx=0200000001db6cfca4ab3fcaa8515a231b9d998ae7eb24ecb4b52de91fa919966c23304288000000006a473044022010c1e9ad6b38e46fca48bd2ae87e05b543a8af909d579a304fa5de0e6b30e80002203ea6e0dbcf4beae653ce8136049956a113526080332053f840cf1a3fffa60688012103eb7d9e163962db69b071192e2a4c09f5f8182e59521bd5a2b573447ac609b888fdffffff01e092f505000000001976a914823bb37e51ca71b7bca3f3ae7cba4efa2f6852d188ac00000000 --txin=02000000017677df9a79f42ba6c31f09a19865d3eb5ac905d02e13ce85ca7da282f9a9d8f4010000006a47304402205de09df553a5e80177f7e8c28407d63684855723286c19bdb6f5d4d9d09038280220640ea64a187b5a530b5e85ef427912d327908b8b5beb299276136fa8f0cb02e8012102e8abff6cd33f6986e62c40b5917ef63928494ae37c0ade28ed9c942cb7197da6fdffffff01f0b9f505000000001976a914c691a89b835909af7affb1c7193e1e80c8d0875c88ac00000000

============================================================
  Saving Summary
============================================================
✓ Saved to part1_summary.json

============================================================
  PART 1 COMPLETE ✓
============================================================
